{
  "_format": "hh-sol-artifact-1",
  "contractName": "SWMS",
  "sourceName": "src/backend/contract/SWMS.sol",
  "abi": [
    {
      "anonymous": false,
      "inputs": [
        {
          "indexed": false,
          "internalType": "uint256",
          "name": "memberId",
          "type": "uint256"
        },
        {
          "indexed": false,
          "internalType": "string",
          "name": "reason",
          "type": "string"
        }
      ],
      "name": "AppointedMember",
      "type": "event"
    },
    {
      "inputs": [
        {
          "internalType": "uint256",
          "name": "_customerId",
          "type": "uint256"
        },
        {
          "internalType": "uint256",
          "name": "_weight",
          "type": "uint256"
        }
      ],
      "name": "addWaste",
      "outputs": [],
      "stateMutability": "nonpayable",
      "type": "function"
    },
    {
      "inputs": [
        {
          "internalType": "uint256",
          "name": "_customerId",
          "type": "uint256"
        }
      ],
      "name": "calcPrice",
      "outputs": [
        {
          "internalType": "uint256",
          "name": "",
          "type": "uint256"
        }
      ],
      "stateMutability": "nonpayable",
      "type": "function"
    },
    {
      "inputs": [
        {
          "internalType": "uint256",
          "name": "_customerId",
          "type": "uint256"
        }
      ],
      "name": "collectWaste",
      "outputs": [
        {
          "internalType": "uint256",
          "name": "",
          "type": "uint256"
        }
      ],
      "stateMutability": "nonpayable",
      "type": "function"
    },
    {
      "inputs": [
        {
          "internalType": "address",
          "name": "",
          "type": "address"
        }
      ],
      "name": "customerAddress",
      "outputs": [
        {
          "internalType": "bool",
          "name": "",
          "type": "bool"
        }
      ],
      "stateMutability": "view",
      "type": "function"
    },
    {
      "inputs": [
        {
          "internalType": "address",
          "name": "",
          "type": "address"
        }
      ],
      "name": "customerLoggedIn",
      "outputs": [
        {
          "internalType": "bool",
          "name": "",
          "type": "bool"
        }
      ],
      "stateMutability": "view",
      "type": "function"
    },
    {
      "inputs": [
        {
          "internalType": "uint256",
          "name": "",
          "type": "uint256"
        }
      ],
      "name": "customers",
      "outputs": [
        {
          "internalType": "string",
          "name": "name",
          "type": "string"
        },
        {
          "internalType": "uint256",
          "name": "customerId",
          "type": "uint256"
        },
        {
          "internalType": "address payable",
          "name": "customer",
          "type": "address"
        },
        {
          "internalType": "string",
          "name": "customerAddress",
          "type": "string"
        },
        {
          "internalType": "string",
          "name": "password",
          "type": "string"
        },
        {
          "internalType": "uint256",
          "name": "totWeight",
          "type": "uint256"
        },
        {
          "components": [
            {
              "internalType": "uint256",
              "name": "weight",
              "type": "uint256"
            },
            {
              "internalType": "uint256",
              "name": "memberId",
              "type": "uint256"
            },
            {
              "internalType": "uint256",
              "name": "customerId",
              "type": "uint256"
            },
            {
              "internalType": "uint256",
              "name": "price",
              "type": "uint256"
            }
          ],
          "internalType": "struct SWMS.Order",
          "name": "curOrder",
          "type": "tuple"
        }
      ],
      "stateMutability": "view",
      "type": "function"
    },
    {
      "inputs": [
        {
          "internalType": "uint256",
          "name": "",
          "type": "uint256"
        }
      ],
      "name": "ethPerGram",
      "outputs": [
        {
          "internalType": "uint256",
          "name": "",
          "type": "uint256"
        }
      ],
      "stateMutability": "view",
      "type": "function"
    },
    {
      "inputs": [],
      "name": "findAvailableMember",
      "outputs": [
        {
          "internalType": "uint256",
          "name": "",
          "type": "uint256"
        }
      ],
      "stateMutability": "view",
      "type": "function"
    },
    {
      "inputs": [],
      "name": "firstQueue",
      "outputs": [
        {
          "internalType": "uint256",
          "name": "",
          "type": "uint256"
        }
      ],
      "stateMutability": "view",
      "type": "function"
    },
    {
      "inputs": [
        {
          "internalType": "uint256",
          "name": "_customerId",
          "type": "uint256"
        }
      ],
      "name": "getCurOrderPrice",
      "outputs": [
        {
          "internalType": "uint256",
          "name": "",
          "type": "uint256"
        }
      ],
      "stateMutability": "view",
      "type": "function"
    },
    {
      "inputs": [],
      "name": "getPastOrderLength",
      "outputs": [
        {
          "internalType": "uint256",
          "name": "",
          "type": "uint256"
        }
      ],
      "stateMutability": "view",
      "type": "function"
    },
    {
      "inputs": [],
      "name": "lastQueue",
      "outputs": [
        {
          "internalType": "uint256",
          "name": "",
          "type": "uint256"
        }
      ],
      "stateMutability": "view",
      "type": "function"
    },
    {
      "inputs": [
        {
          "internalType": "uint256",
          "name": "_customerId",
          "type": "uint256"
        },
        {
          "internalType": "string",
          "name": "_password",
          "type": "string"
        }
      ],
      "name": "loginCustomer",
      "outputs": [
        {
          "internalType": "bool",
          "name": "",
          "type": "bool"
        }
      ],
      "stateMutability": "nonpayable",
      "type": "function"
    },
    {
      "inputs": [
        {
          "internalType": "uint256",
          "name": "_memberId",
          "type": "uint256"
        },
        {
          "internalType": "string",
          "name": "_password",
          "type": "string"
        }
      ],
      "name": "loginMember",
      "outputs": [
        {
          "internalType": "bool",
          "name": "",
          "type": "bool"
        }
      ],
      "stateMutability": "nonpayable",
      "type": "function"
    },
    {
      "inputs": [
        {
          "internalType": "address",
          "name": "",
          "type": "address"
        }
      ],
      "name": "memberAddress",
      "outputs": [
        {
          "internalType": "bool",
          "name": "",
          "type": "bool"
        }
      ],
      "stateMutability": "view",
      "type": "function"
    },
    {
      "inputs": [
        {
          "internalType": "address",
          "name": "",
          "type": "address"
        }
      ],
      "name": "memberLoggedIn",
      "outputs": [
        {
          "internalType": "bool",
          "name": "",
          "type": "bool"
        }
      ],
      "stateMutability": "view",
      "type": "function"
    },
    {
      "inputs": [
        {
          "internalType": "uint256",
          "name": "",
          "type": "uint256"
        }
      ],
      "name": "members",
      "outputs": [
        {
          "internalType": "string",
          "name": "name",
          "type": "string"
        },
        {
          "internalType": "uint256",
          "name": "memberId",
          "type": "uint256"
        },
        {
          "internalType": "address payable",
          "name": "member",
          "type": "address"
        },
        {
          "internalType": "string",
          "name": "password",
          "type": "string"
        },
        {
          "internalType": "uint256",
          "name": "contactNumber",
          "type": "uint256"
        },
        {
          "internalType": "bool",
          "name": "isAvailable",
          "type": "bool"
        },
        {
          "internalType": "uint256",
          "name": "customerId",
          "type": "uint256"
        }
      ],
      "stateMutability": "view",
      "type": "function"
    },
    {
      "inputs": [
        {
          "internalType": "uint256",
          "name": "",
          "type": "uint256"
        }
      ],
      "name": "pastOrders",
      "outputs": [
        {
          "internalType": "uint256",
          "name": "weight",
          "type": "uint256"
        },
        {
          "internalType": "uint256",
          "name": "memberId",
          "type": "uint256"
        },
        {
          "internalType": "uint256",
          "name": "customerId",
          "type": "uint256"
        },
        {
          "internalType": "uint256",
          "name": "price",
          "type": "uint256"
        }
      ],
      "stateMutability": "view",
      "type": "function"
    },
    {
      "inputs": [
        {
          "internalType": "uint256",
          "name": "_memberId",
          "type": "uint256"
        },
        {
          "internalType": "uint256",
          "name": "_customerId",
          "type": "uint256"
        }
      ],
      "name": "payCustomer",
      "outputs": [],
      "stateMutability": "payable",
      "type": "function"
    },
    {
      "inputs": [
        {
          "internalType": "string",
          "name": "_name",
          "type": "string"
        },
        {
          "internalType": "uint256",
          "name": "_contactNumber",
          "type": "uint256"
        },
        {
          "internalType": "string",
          "name": "_password",
          "type": "string"
        }
      ],
      "name": "registerCommittee",
      "outputs": [
        {
          "internalType": "uint256",
          "name": "",
          "type": "uint256"
        }
      ],
      "stateMutability": "nonpayable",
      "type": "function"
    },
    {
      "inputs": [
        {
          "internalType": "string",
          "name": "_name",
          "type": "string"
        },
        {
          "internalType": "string",
          "name": "_customerAddress",
          "type": "string"
        },
        {
          "internalType": "string",
          "name": "_password",
          "type": "string"
        }
      ],
      "name": "registerCustomer",
      "outputs": [
        {
          "internalType": "uint256",
          "name": "",
          "type": "uint256"
        }
      ],
      "stateMutability": "nonpayable",
      "type": "function"
    },
    {
      "inputs": [],
      "name": "totalCustomers",
      "outputs": [
        {
          "internalType": "uint256",
          "name": "",
          "type": "uint256"
        }
      ],
      "stateMutability": "view",
      "type": "function"
    },
    {
      "inputs": [],
      "name": "totalMembers",
      "outputs": [
        {
          "internalType": "uint256",
          "name": "",
          "type": "uint256"
        }
      ],
      "stateMutability": "view",
      "type": "function"
    }
  ],
  "bytecode": "0x6101f46002556001600b556000600c55610100604052662386f26fc100006080908152662aa1efb94e000060a05266470de4df82000060c05266354a6ba7a1800060e0526200005390600d90600462000068565b503480156200006157600080fd5b50620000cd565b8260048101928215620000a4579160200282015b82811115620000a4578251829066ffffffffffffff169055916020019190600101906200007c565b50620000b2929150620000b6565b5090565b5b80821115620000b25760008155600101620000b7565b61218480620000dd6000396000f3fe6080604052600436106101405760003560e01c80636cd69bbd116100b6578063c45f11ed1161006f578063c45f11ed146103eb578063c5df288214610400578063d76906ac14610420578063de26bc6214610442578063f8e66a4d14610462578063f9269e921461048257600080fd5b80636cd69bbd146102f257806376e925591461031257806377deedf914610328578063987cc11d14610358578063a4800c2e14610388578063c0abda2a146103b857600080fd5b8063295ca7fb11610108578063295ca7fb1461022e578063295d6766146102445780634e1a5d1214610259578063547c3648146102795780635daf08ca1461028f5780635e8bcda9146102c257600080fd5b80631866dcfb146101455780631e0fd1011461016e5780631e7130d7146101ae57806320852a8c146101ee57806320b92bf61461020e575b600080fd5b34801561015157600080fd5b5061015b60005481565b6040519081526020015b60405180910390f35b34801561017a57600080fd5b5061019e610189366004611b35565b60066020526000908152604090205460ff1681565b6040519015158152602001610165565b3480156101ba57600080fd5b506101ce6101c9366004611b5e565b610495565b604080519485526020850193909352918301526060820152608001610165565b3480156101fa57600080fd5b5061019e610209366004611c1a565b6104cf565b34801561021a57600080fd5b5061015b610229366004611b5e565b6105d3565b34801561023a57600080fd5b5061015b600c5481565b34801561025057600080fd5b5061015b610703565b34801561026557600080fd5b5061015b610274366004611c61565b61074f565b34801561028557600080fd5b5061015b600b5481565b34801561029b57600080fd5b506102af6102aa366004611b5e565b610940565b6040516101659796959493929190611d1e565b3480156102ce57600080fd5b5061019e6102dd366004611b35565b60096020526000908152604090205460ff1681565b3480156102fe57600080fd5b5061019e61030d366004611c1a565b610a9e565b34801561031e57600080fd5b5061015b60015481565b34801561033457600080fd5b5061015b610343366004611b5e565b60009081526004602052604090206009015490565b34801561036457600080fd5b5061019e610373366004611b35565b60076020526000908152604090205460ff1681565b34801561039457600080fd5b5061019e6103a3366004611b35565b60086020526000908152604090205460ff1681565b3480156103c457600080fd5b506103d86103d3366004611b5e565b610bb5565b6040516101659796959493929190611d79565b3480156103f757600080fd5b5060035461015b565b34801561040c57600080fd5b5061015b61041b366004611b5e565b610dc1565b34801561042c57600080fd5b5061044061043b366004611e07565b611176565b005b34801561044e57600080fd5b5061015b61045d366004611b5e565b6111ff565b34801561046e57600080fd5b5061015b61047d366004611e29565b611216565b610440610490366004611e07565b6113de565b600381815481106104a557600080fd5b60009182526020909120600490910201805460018201546002830154600390930154919350919084565b60006104da83611563565b61052b5760405162461bcd60e51b815260206004820152601b60248201527f5f5f5f4d656d626572206e6f7420726567697374657265645f5f5f000000000060448201526064015b60405180910390fd5b61053583836115bf565b61057d5760405162461bcd60e51b81526020600482015260196024820152785f5f5f496e76616c69642063726564656e7469616c735f5f5f60381b6044820152606401610522565b6105ae6040518060400160405280601081526020016f131bd9da5b8814dd58d8d95cdcd99d5b60821b815250611633565b50336000908152600960205260409020805460ff191660019081179091555b92915050565b6000818152600460205260408120600601546105ed611b17565b816000805b60038110156106b15761060483611679565b84826004811061061657610616611e9a565b602002015283816004811061062d5761062d611e9a565b602002015161063c9084611ec6565b925083816004811061065057610650611e9a565b6020020151600d826004811061066857610668611e9a565b01546106749190611ed9565b61067e9083611ef0565b915061069f84826004811061069557610695611e9a565b60200201516116c5565b806106a981611f03565b9150506105f2565b506106bb826116c5565b606083018290526010546106d0908390611ed9565b6106da9082611ef0565b90506106e5816116c5565b60009586526004602052604090952060090185905550929392505050565b600060015b6001548111610747576000818152600560208190526040909120015460ff16151560010361073557919050565b8061073f81611f03565b915050610708565b506000905090565b600061075a3361170a565b156107cd5760405162461bcd60e51b815260206004820152603860248201527f5f5f5f506c656173652075736520616e6f7468657220616464726573732e204160448201527f64647265737320697320726567697374657265642e5f5f5f00000000000000006064820152608401610522565b600180549060006107dd83611f03565b90915550506040805160e0810182528581526001805460208084018290523384860152606084018790526080840188905260a0840192909252600060c08401819052908152600590915291909120815181906108399082611fa5565b506020820151600182015560408201516002820180546001600160a01b0319166001600160a01b039092169190911790556060820151600382019061087e9082611fa5565b506080820151600482015560a082015160058201805491151560ff1992831617905560c09092015160069091015533600090815260076020908152604091829020805490931660019081179093558151808301909252600b82526a026b2b6b132b91024b21d160ad1b9082015290546108f79190611756565b600b54600c54106109355761092a6040518060400160405280600781526020016624b71034b3171760c91b815250611633565b61093560015461179b565b506001549392505050565b60056020526000908152604090208054819061095b90611f1c565b80601f016020809104026020016040519081016040528092919081815260200182805461098790611f1c565b80156109d45780601f106109a9576101008083540402835291602001916109d4565b820191906000526020600020905b8154815290600101906020018083116109b757829003601f168201915b5050505060018301546002840154600385018054949592946001600160a01b03909216935090610a0390611f1c565b80601f0160208091040260200160405190810160405280929190818152602001828054610a2f90611f1c565b8015610a7c5780601f10610a5157610100808354040283529160200191610a7c565b820191906000526020600020905b815481529060010190602001808311610a5f57829003601f168201915b50505050600483015460058401546006909401549293909260ff909116915087565b6000610aa983611863565b610b0d5760405162461bcd60e51b815260206004820152602f60248201527f5f5f5f437573746f6d6572206e6f74207265676973746572656420776974682060448201526e74686973206163636f756e745f5f5f60881b6064820152608401610522565b610b1783836118cc565b610b5f5760405162461bcd60e51b81526020600482015260196024820152785f5f5f496e76616c69642063726564656e7469616c735f5f5f60381b6044820152606401610522565b610b91604051806040016040528060118152602001705375636365737366756c206c6f67696e2160781b815250611633565b50336000908152600860205260409020805460ff1916600190811790915592915050565b600460205260009081526040902080548190610bd090611f1c565b80601f0160208091040260200160405190810160405280929190818152602001828054610bfc90611f1c565b8015610c495780601f10610c1e57610100808354040283529160200191610c49565b820191906000526020600020905b815481529060010190602001808311610c2c57829003601f168201915b5050505060018301546002840154600385018054949592946001600160a01b03909216935090610c7890611f1c565b80601f0160208091040260200160405190810160405280929190818152602001828054610ca490611f1c565b8015610cf15780601f10610cc657610100808354040283529160200191610cf1565b820191906000526020600020905b815481529060010190602001808311610cd457829003601f168201915b505050505090806004018054610d0690611f1c565b80601f0160208091040260200160405190810160405280929190818152602001828054610d3290611f1c565b8015610d7f5780601f10610d5457610100808354040283529160200191610d7f565b820191906000526020600020905b815481529060010190602001808311610d6257829003601f168201915b50505050600583015460408051608081018252600686015481526007860154602082015260088601549181019190915260099094015460608501529192905087565b3360009081526008602052604081205460ff168015610df957506000828152600460205260409020600201546001600160a01b031633145b610e455760405162461bcd60e51b815260206004820152601d60248201527f5f5f5f4c6f6720696e20746f20636f6c6c6563742077617374655f5f5f0000006044820152606401610522565b60008281526004602052604090206007015415610ebf5760405162461bcd60e51b815260206004820152603260248201527f5f5f5f436f6d6d6974746565204d656d626572206170706f696e74656420416c6044820152717265616479204170706f696e7465645f5f5f60701b6064820152608401610522565b6000610ec9610703565b90508060000361105157610f116040518060400160405280602081526020017f4e6f206d656d6265722069732063757272656e746c7920617661696c61626c65815250611633565b60025460008481526004602052604090206006015410610f5c576001600c6000828254610f3e9190611ef0565b9091555050600c546000908152600a60205260409020839055610fcd565b7f70c6e47d0db3de6f65728023c802832d1be7911c36329dae8ce2c029ced354de6000604051610fbc918152604060208201819052601690820152755f5f5f4e6f7420656e6f7567682077617374655f5f5f60501b606082015260800190565b60405180910390a150600292915050565b7f70c6e47d0db3de6f65728023c802832d1be7911c36329dae8ce2c029ced354de60006040516110409181526040602082018190526023908201527f5f5f5f4e6f206d656d62657220417661696c61626c652063757272656e746c796060820152625f5f5f60e81b608082015260a00190565b60405180910390a150600092915050565b600254600084815260046020526040902060060154106111455760008181526005602081905260409091206006810185905501805460ff191690556000838152600460209081526040918290206007018390558151808301909252600e82526d13595b58995c881d5c19185d195960921b908201526110cf90611633565b7f70c6e47d0db3de6f65728023c802832d1be7911c36329dae8ce2c029ced354de8160405161113491815260406020808301829052908201527f5f5f5f436f6d6d6974746565204d656d626572206170706f696e7465645f5f5f606082015260800190565b60405180910390a150600192915050565b610f5c6040518060400160405280601081526020016f4e6f7420656e6f75676820776173746560801b815250611633565b3360009081526008602052604090205460ff166111d55760405162461bcd60e51b815260206004820152601960248201527f5f5f5f4c6f6720696e20746f206164642077617374655f5f5f000000000000006044820152606401610522565b600082815260046020526040812060060180548392906111f6908490611ef0565b90915550505050565b600d816004811061120f57600080fd5b0154905081565b60006112213361170a565b1561126e5760405162461bcd60e51b815260206004820181905260248201527f5f5f5f506c656173652075736520616e6f7468657220616464726573735f5f5f6044820152606401610522565b60008054908061127d83611f03565b90915550506040805160e08101825285815260008054602080840182905233848601526060808501899052608080860189905260a086018590528651908101875284815280830185905280870184905290810184905260c08501529082526004905291909120815181906112f19082611fa5565b506020820151600182015560408201516002820180546001600160a01b0319166001600160a01b03909216919091179055606082015160038201906113369082611fa5565b506080820151600482019061134b9082611fa5565b5060a0820151600582015560c090910151805160068084019190915560208083015160078501556040808401516008860155606090930151600990940193909355336000908152908352818120805460ff191660011790558151808301909252600d82526c021bab9ba37b6b2b91024b21d1609d1b9282019290925290546113d39190611756565b506000549392505050565b60008181526004602052604090206007015482146114335760405162461bcd60e51b81526020600482015260126024820152715f5f5f416c726561647920706169645f5f5f60701b6044820152606401610522565b600081815260046020908152604080832060070154835260059091529020600201546001600160a01b031633146114ac5760405162461bcd60e51b815260206004820152601a60248201527f5f5f5f4e6f74206170706f696e746564206d656d6265725f5f5f0000000000006044820152606401610522565b3360009081526009602052604090205460ff1661150b5760405162461bcd60e51b815260206004820181905260248201527f5f5f5f4d656d626572206b696e646c79206c6f6767696e2066697273745f5f5f6044820152606401610522565b6000818152600460205260408082206002015490516001600160a01b03909116913480156108fc02929091818181858888f19350505050158015611553573d6000803e3d6000fd5b5061155f82823461191b565b5050565b600081815260056020526040812060020154336001600160a01b039091160361158e57506001919050565b600082815260056020526040812080546115a790611f1c565b905011156115b757506001919050565b506000919050565b6000816040516020016115d29190612065565b60408051601f198184030181528282528051602091820120600087815260058352929092209192611607926003019101612081565b604051602081830303815290604052805190602001200361162a575060016105cd565b50600092915050565b6116768160405160240161164791906120f7565b60408051601f198184030181529190526020810180516001600160e01b031663104c13eb60e21b179052611aa5565b50565b6000804260405160200161168f91815260200190565b60408051601f19818403018152919052805160209091012090506116b3838261210a565b6116be906001611ef0565b9392505050565b611676816040516024016116db91815260200190565b60408051601f198184030181529190526020810180516001600160e01b031663f82c50f160e01b179052611aa5565b600061171582611aae565b6001600160a01b03821660009081526006602052604090205460ff16806105cd5750506001600160a01b031660009081526007602052604090205460ff1690565b61155f828260405160240161176c92919061212c565b60408051601f198184030181529190526020810180516001600160e01b0316632d839cb360e21b179052611aa5565b600b546000908152600a602090815260408083205484845260058084528285206006810183905501805460ff19169055808452600483529281902060070184905580518082019091526009815268021bab9ba37b6b2b9160bd1b918101919091526118069082611756565b61183c6040518060400160405280601481526020017301034b99030b9b9b4b3b732b21026b2b6b132b9160651b81525083611756565b600b80546000908152600a60205260408120819055815460019291906111f6908490611ef0565b600081815260046020526040812060020154336001600160a01b039091160361188e57506001919050565b6115b76040518060400160405280601781526020017f437573746f6d6572206e6f742072656769737465726564000000000000000000815250611633565b6000816040516020016118df9190612065565b60405160208183030381529060405280519060200120600460008581526020019081526020016000206004016040516020016116079190612081565b6000828152600460208181526040808420600681015482516080810184528181528085018a81529381018981526060820189815260038054600181018255908a5292517fc2575a0e9e593c00f959f8c92f12db2869c3395a3b0502d05e2516446f71f85b9389029384015594517fc2575a0e9e593c00f959f8c92f12db2869c3395a3b0502d05e2516446f71f85c830155517fc2575a0e9e593c00f959f8c92f12db2869c3395a3b0502d05e2516446f71f85d82015592517fc2575a0e9e593c00f959f8c92f12db2869c3395a3b0502d05e2516446f71f85e90930192909255868552929091526005909101805491928392611a18908490611ef0565b9091555050604080516080810182526000808252602080830182815283850188815260608501848152898552600484528685209551600680880191909155925160078701559051600886015551600990940193909355878252600590819052928120928301805460ff19166001179055910155600b54600c5410611a9f57611a9f8461179b565b50505050565b61167681611af6565b6040516001600160a01b03821660248201526116769060440160408051601f198184030181529190526020810180516001600160e01b031663161765e160e11b179052611aa5565b60006a636f6e736f6c652e6c6f679050600080835160208501845afa505050565b60405180608001604052806004906020820280368337509192915050565b600060208284031215611b4757600080fd5b81356001600160a01b03811681146116be57600080fd5b600060208284031215611b7057600080fd5b5035919050565b634e487b7160e01b600052604160045260246000fd5b600082601f830112611b9e57600080fd5b813567ffffffffffffffff80821115611bb957611bb9611b77565b604051601f8301601f19908116603f01168101908282118183101715611be157611be1611b77565b81604052838152866020858801011115611bfa57600080fd5b836020870160208301376000602085830101528094505050505092915050565b60008060408385031215611c2d57600080fd5b82359150602083013567ffffffffffffffff811115611c4b57600080fd5b611c5785828601611b8d565b9150509250929050565b600080600060608486031215611c7657600080fd5b833567ffffffffffffffff80821115611c8e57600080fd5b611c9a87838801611b8d565b9450602086013593506040860135915080821115611cb757600080fd5b50611cc486828701611b8d565b9150509250925092565b60005b83811015611ce9578181015183820152602001611cd1565b50506000910152565b60008151808452611d0a816020860160208601611cce565b601f01601f19169290920160200192915050565b60e081526000611d3160e083018a611cf2565b602083018990526001600160a01b03881660408401528281036060840152611d598188611cf2565b6080840196909652505091151560a083015260c090910152949350505050565b6000610140808352611d8d8184018b611cf2565b602084018a90526001600160a01b038916604085015283810360608501529050611db78188611cf2565b90508281036080840152611dcb8187611cf2565b9150508360a0830152825160c0830152602083015160e08301526040830151610100830152606083015161012083015298975050505050505050565b60008060408385031215611e1a57600080fd5b50508035926020909101359150565b600080600060608486031215611e3e57600080fd5b833567ffffffffffffffff80821115611e5657600080fd5b611e6287838801611b8d565b94506020860135915080821115611e7857600080fd5b611e8487838801611b8d565b93506040860135915080821115611cb757600080fd5b634e487b7160e01b600052603260045260246000fd5b634e487b7160e01b600052601160045260246000fd5b818103818111156105cd576105cd611eb0565b80820281158282048414176105cd576105cd611eb0565b808201808211156105cd576105cd611eb0565b600060018201611f1557611f15611eb0565b5060010190565b600181811c90821680611f3057607f821691505b602082108103611f5057634e487b7160e01b600052602260045260246000fd5b50919050565b601f821115611fa057600081815260208120601f850160051c81016020861015611f7d5750805b601f850160051c820191505b81811015611f9c57828155600101611f89565b5050505b505050565b815167ffffffffffffffff811115611fbf57611fbf611b77565b611fd381611fcd8454611f1c565b84611f56565b602080601f8311600181146120085760008415611ff05750858301515b600019600386901b1c1916600185901b178555611f9c565b600085815260208120601f198616915b8281101561203757888601518255948401946001909101908401612018565b50858210156120555787850151600019600388901b60f8161c191681555b5050505050600190811b01905550565b60008251612077818460208701611cce565b9190910192915050565b600080835461208f81611f1c565b600182811680156120a757600181146120bc576120eb565b60ff19841687528215158302870194506120eb565b8760005260208060002060005b858110156120e25781548a8201529084019082016120c9565b50505082870194505b50929695505050505050565b6020815260006116be6020830184611cf2565b60008261212757634e487b7160e01b600052601260045260246000fd5b500690565b60408152600061213f6040830185611cf2565b9050826020830152939250505056fea2646970667358221220fc06ed970458c66e725578393963e4675277523cf5fd8795c99015d6516a236464736f6c63430008140033",
  "linkReferences": {},
  "deployedLinkReferences": {}
}